{
  "contractName": "MyContract",
  "abi": [
    {
      "anonymous": false,
      "inputs": [
        {
          "indexed": true,
          "internalType": "address",
          "name": "key",
          "type": "address"
        },
        {
          "components": [
            {
              "internalType": "uint256",
              "name": "number",
              "type": "uint256"
            },
            {
              "internalType": "string",
              "name": "text",
              "type": "string"
            },
            {
              "internalType": "bool",
              "name": "flag",
              "type": "bool"
            }
          ],
          "indexed": false,
          "internalType": "struct MyContract.Data",
          "name": "data",
          "type": "tuple"
        }
      ],
      "name": "DataAdded",
      "type": "event"
    },
    {
      "anonymous": false,
      "inputs": [
        {
          "indexed": true,
          "internalType": "address",
          "name": "key",
          "type": "address"
        }
      ],
      "name": "DataRemoved",
      "type": "event"
    },
    {
      "inputs": [
        {
          "internalType": "address",
          "name": "",
          "type": "address"
        }
      ],
      "name": "dataMap",
      "outputs": [
        {
          "internalType": "uint256",
          "name": "number",
          "type": "uint256"
        },
        {
          "internalType": "string",
          "name": "text",
          "type": "string"
        },
        {
          "internalType": "bool",
          "name": "flag",
          "type": "bool"
        }
      ],
      "stateMutability": "view",
      "type": "function",
      "constant": true
    },
    {
      "inputs": [
        {
          "internalType": "address",
          "name": "key",
          "type": "address"
        },
        {
          "internalType": "uint256",
          "name": "number",
          "type": "uint256"
        },
        {
          "internalType": "string",
          "name": "text",
          "type": "string"
        },
        {
          "internalType": "bool",
          "name": "flag",
          "type": "bool"
        }
      ],
      "name": "addData",
      "outputs": [],
      "stateMutability": "nonpayable",
      "type": "function"
    },
    {
      "inputs": [
        {
          "internalType": "address",
          "name": "key",
          "type": "address"
        }
      ],
      "name": "removeData",
      "outputs": [],
      "stateMutability": "nonpayable",
      "type": "function"
    }
  ],
  "bytecode": "0x608060405234801561001057600080fd5b5061092f806100206000396000f3fe608060405234801561001057600080fd5b50600436106100415760003560e01c806346acfb06146100465780635efb4e3414610062578063bf3202701461007e575b600080fd5b610060600480360381019061005b91906104e0565b6100b0565b005b61007c600480360381019061007791906104b3565b6101af565b005b610098600480360381019061009391906104b3565b610262565b6040516100a793929190610683565b60405180910390f35b600060405180606001604052808581526020018481526020018315158152509050806000808773ffffffffffffffffffffffffffffffffffffffff1673ffffffffffffffffffffffffffffffffffffffff168152602001908152602001600020600082015181600001556020820151816001019080519060200190610136929190610321565b5060408201518160020160006101000a81548160ff0219169083151502179055509050508473ffffffffffffffffffffffffffffffffffffffff167f5d810a922a6d8ef52c8e55601573f1122b93f9d1f50fe7c4bb597f4d61c0b0bb826040516101a09190610661565b60405180910390a25050505050565b6000808273ffffffffffffffffffffffffffffffffffffffff1673ffffffffffffffffffffffffffffffffffffffff16815260200190815260200160002060008082016000905560018201600061020691906103a7565b6002820160006101000a81549060ff021916905550508073ffffffffffffffffffffffffffffffffffffffff167fa7428bdcc97b96593334ec7f05608c93b48dfee6026c18c2e38db1b4155e479e60405160405180910390a250565b600060205280600052604060002060009150905080600001549080600101805461028b906107ce565b80601f01602080910402602001604051908101604052809291908181526020018280546102b7906107ce565b80156103045780601f106102d957610100808354040283529160200191610304565b820191906000526020600020905b8154815290600101906020018083116102e757829003601f168201915b5050505050908060020160009054906101000a900460ff16905083565b82805461032d906107ce565b90600052602060002090601f01602090048101928261034f5760008555610396565b82601f1061036857805160ff1916838001178555610396565b82800160010185558215610396579182015b8281111561039557825182559160200191906001019061037a565b5b5090506103a391906103e7565b5090565b5080546103b3906107ce565b6000825580601f106103c557506103e4565b601f0160209004906000526020600020908101906103e391906103e7565b5b50565b5b808211156104005760008160009055506001016103e8565b5090565b6000610417610412846106e6565b6106c1565b90508281526020810184848401111561043357610432610894565b5b61043e84828561078c565b509392505050565b600081359050610455816108b4565b92915050565b60008135905061046a816108cb565b92915050565b600082601f8301126104855761048461088f565b5b8135610495848260208601610404565b91505092915050565b6000813590506104ad816108e2565b92915050565b6000602082840312156104c9576104c861089e565b5b60006104d784828501610446565b91505092915050565b600080600080608085870312156104fa576104f961089e565b5b600061050887828801610446565b94505060206105198782880161049e565b935050604085013567ffffffffffffffff81111561053a57610539610899565b5b61054687828801610470565b92505060606105578782880161045b565b91505092959194509250565b61056c81610756565b82525050565b61057b81610756565b82525050565b600061058c82610717565b6105968185610722565b93506105a681856020860161079b565b6105af816108a3565b840191505092915050565b60006105c582610717565b6105cf8185610733565b93506105df81856020860161079b565b6105e8816108a3565b840191505092915050565b600060608301600083015161060b6000860182610643565b50602083015184820360208601526106238282610581565b91505060408301516106386040860182610563565b508091505092915050565b61064c81610782565b82525050565b61065b81610782565b82525050565b6000602082019050818103600083015261067b81846105f3565b905092915050565b60006060820190506106986000830186610652565b81810360208301526106aa81856105ba565b90506106b96040830184610572565b949350505050565b60006106cb6106dc565b90506106d78282610800565b919050565b6000604051905090565b600067ffffffffffffffff82111561070157610700610860565b5b61070a826108a3565b9050602081019050919050565b600081519050919050565b600082825260208201905092915050565b600082825260208201905092915050565b600061074f82610762565b9050919050565b60008115159050919050565b600073ffffffffffffffffffffffffffffffffffffffff82169050919050565b6000819050919050565b82818337600083830152505050565b60005b838110156107b957808201518184015260208101905061079e565b838111156107c8576000848401525b50505050565b600060028204905060018216806107e657607f821691505b602082108114156107fa576107f9610831565b5b50919050565b610809826108a3565b810181811067ffffffffffffffff8211171561082857610827610860565b5b80604052505050565b7f4e487b7100000000000000000000000000000000000000000000000000000000600052602260045260246000fd5b7f4e487b7100000000000000000000000000000000000000000000000000000000600052604160045260246000fd5b600080fd5b600080fd5b600080fd5b600080fd5b6000601f19601f8301169050919050565b6108bd81610744565b81146108c857600080fd5b50565b6108d481610756565b81146108df57600080fd5b50565b6108eb81610782565b81146108f657600080fd5b5056fea26469706673582212205c1a98e3d15bf378319c58968f95e51b48244a8b98975b5ac1d8823489f1048d64736f6c63430008060033",
  "immutableReferences": {},
  "source": "// SPDX-License-Identifier: MIT\npragma solidity ^0.8.0;\n\ncontract MyContract {\n    struct Data {\n        uint256 number;\n        string text;\n        bool flag;\n    }\n\n    mapping(address => Data) public dataMap;\n\n    event DataAdded(address indexed key, Data data);\n    event DataRemoved(address indexed key);\n\n    function addData(address key, uint256 number, string memory text, bool flag) public {\n        Data memory newData = Data(number, text, flag);\n        dataMap[key] = newData;\n\n        emit DataAdded(key, newData);\n    }\n\n    function removeData(address key) public {\n        delete dataMap[key];\n\n        emit DataRemoved(key);\n    }\n}\n",
  "sourcePath": "/home/freulaeux/delat_dengi/contracts/MyContract.sol",
  "compiler": {
    "name": "solc",
    "version": "0.8.6+commit.11564f7e.Emscripten.clang"
  },
  "schemaVersion": "3.4.14",
  "updatedAt": "2023-06-28T23:35:18.048Z",
  "networkType": "ethereum",
  "devdoc": {
    "kind": "dev",
    "methods": {},
    "version": 1
  },
  "userdoc": {
    "kind": "user",
    "methods": {},
    "version": 1
  }
}